{
  "contractName": "TrafficRecord",
  "abi": [
    {
      "anonymous": false,
      "inputs": [
        {
          "indexed": false,
          "internalType": "uint256",
          "name": "id",
          "type": "uint256"
        }
      ],
      "name": "vehicleRegistered",
      "type": "event"
    },
    {
      "constant": false,
      "inputs": [
        {
          "internalType": "string",
          "name": "_Identification",
          "type": "string"
        },
        {
          "internalType": "uint256",
          "name": "_CollisionCount",
          "type": "uint256"
        }
      ],
      "name": "registerVehicle",
      "outputs": [],
      "payable": false,
      "stateMutability": "nonpayable",
      "type": "function"
    },
    {
      "constant": false,
      "inputs": [
        {
          "internalType": "string",
          "name": "_EDRInfo",
          "type": "string"
        },
        {
          "internalType": "uint256",
          "name": "_CollisionCount",
          "type": "uint256"
        }
      ],
      "name": "addNewEDRInfo",
      "outputs": [],
      "payable": false,
      "stateMutability": "nonpayable",
      "type": "function"
    },
    {
      "constant": true,
      "inputs": [],
      "name": "viewRecord",
      "outputs": [
        {
          "internalType": "uint256",
          "name": "id",
          "type": "uint256"
        },
        {
          "internalType": "uint256",
          "name": "CollisionCount",
          "type": "uint256"
        },
        {
          "internalType": "string",
          "name": "Identification",
          "type": "string"
        },
        {
          "internalType": "string",
          "name": "EDRInfo",
          "type": "string"
        }
      ],
      "payable": false,
      "stateMutability": "view",
      "type": "function"
    }
  ],
  "bytecode": "0x608060405234801561001057600080fd5b50610c17806100206000396000f3fe608060405234801561001057600080fd5b50600436106100415760003560e01c80636a4121691461004657806382ac03071461010b578063f01319ed146101d0575b600080fd5b6101096004803603604081101561005c57600080fd5b810190808035906020019064010000000081111561007957600080fd5b82018360208201111561008b57600080fd5b803590602001918460018302840111640100000000831117156100ad57600080fd5b91908080601f016020809104026020016040519081016040528093929190818152602001838380828437600081840152601f19601f820116905080830192505050505050509192919290803590602001909291905050506102cd565b005b6101ce6004803603604081101561012157600080fd5b810190808035906020019064010000000081111561013e57600080fd5b82018360208201111561015057600080fd5b8035906020019184600183028401116401000000008311171561017257600080fd5b91908080601f016020809104026020016040519081016040528093929190818152602001838380828437600081840152601f19601f8201169050808301925050505050505091929192908035906020019092919050505061050a565b005b6101d86107a9565b604051808581526020018481526020018060200180602001838103835285818151815260200191508051906020019080838360005b8381101561022857808201518184015260208101905061020d565b50505050905090810190601f1680156102555780820380516001836020036101000a031916815260200191505b50838103825284818151815260200191508051906020019080838360005b8381101561028e578082015181840152602081019050610273565b50505050905090810190601f1680156102bb5780820380516001836020036101000a031916815260200191505b50965050505050505060405180910390f35b6000803373ffffffffffffffffffffffffffffffffffffffff1673ffffffffffffffffffffffffffffffffffffffff16815260200190815260200160002060040160009054906101000a900460ff1661038e576040517f08c379a000000000000000000000000000000000000000000000000000000000815260040180806020018281038252600f8152602001807f204e6f742072656769737465726564000000000000000000000000000000000081525060200191505060405180910390fd5b816000803373ffffffffffffffffffffffffffffffffffffffff1673ffffffffffffffffffffffffffffffffffffffff16815260200190815260200160002060030190805190602001906103e3929190610ab6565b50806000803373ffffffffffffffffffffffffffffffffffffffff1673ffffffffffffffffffffffffffffffffffffffff16815260200190815260200160002060020181905550806001806000803373ffffffffffffffffffffffffffffffffffffffff1673ffffffffffffffffffffffffffffffffffffffff16815260200190815260200160002060000154038154811061047b57fe5b906000526020600020906005020160020181905550816001806000803373ffffffffffffffffffffffffffffffffffffffff1673ffffffffffffffffffffffffffffffffffffffff1681526020019081526020016000206000015403815481106104e157fe5b90600052602060002090600502016003019080519060200190610505929190610ab6565b505050565b6000803373ffffffffffffffffffffffffffffffffffffffff1673ffffffffffffffffffffffffffffffffffffffff16815260200190815260200160002060040160009054906101000a900460ff16156105cc576040517f08c379a00000000000000000000000000000000000000000000000000000000081526004018080602001828103825260138152602001807f20416c726561647920726567697374657265640000000000000000000000000081525060200191505060405180910390fd5b60008060003373ffffffffffffffffffffffffffffffffffffffff1673ffffffffffffffffffffffffffffffffffffffff1681526020019081526020016000209050600260008154809291906001019190505550600254816000018190555082816001019080519060200190610643929190610ab6565b5081816002018190555060018160040160006101000a81548160ff02191690831515021790555060016000803373ffffffffffffffffffffffffffffffffffffffff1673ffffffffffffffffffffffffffffffffffffffff168152602001908152602001600020908060018154018082558091505090600182039060005260206000209060050201600090919290919091506000820154816000015560018201816001019080546001816001161561010002031660029004610706929190610b36565b506002820154816002015560038201816003019080546001816001161561010002031660029004610738929190610b36565b506004820160009054906101000a900460ff168160040160006101000a81548160ff0219169083151502179055505050507f992531bdeb276656dca6745b2d37b371ec7566cbd8eee0218f2fb7618c90d90781600001546040518082815260200191505060405180910390a1505050565b6000806060806000803373ffffffffffffffffffffffffffffffffffffffff1673ffffffffffffffffffffffffffffffffffffffff16815260200190815260200160002060040160009054906101000a900460ff16610870576040517f08c379a000000000000000000000000000000000000000000000000000000000815260040180806020018281038252600f8152602001807f204e6f742072656769737465726564000000000000000000000000000000000081525060200191505060405180910390fd5b6000803373ffffffffffffffffffffffffffffffffffffffff1673ffffffffffffffffffffffffffffffffffffffff1681526020019081526020016000206000015493506000803373ffffffffffffffffffffffffffffffffffffffff1673ffffffffffffffffffffffffffffffffffffffff1681526020019081526020016000206002015492506000803373ffffffffffffffffffffffffffffffffffffffff1673ffffffffffffffffffffffffffffffffffffffff1681526020019081526020016000206001018054600181600116156101000203166002900480601f0160208091040260200160405190810160405280929190818152602001828054600181600116156101000203166002900480156109cd5780601f106109a2576101008083540402835291602001916109cd565b820191906000526020600020905b8154815290600101906020018083116109b057829003601f168201915b505050505091506000803373ffffffffffffffffffffffffffffffffffffffff1673ffffffffffffffffffffffffffffffffffffffff1681526020019081526020016000206003018054600181600116156101000203166002900480601f016020809104026020016040519081016040528092919081815260200182805460018160011615610100020316600290048015610aa95780601f10610a7e57610100808354040283529160200191610aa9565b820191906000526020600020905b815481529060010190602001808311610a8c57829003601f168201915b5050505050905090919293565b828054600181600116156101000203166002900490600052602060002090601f016020900481019282601f10610af757805160ff1916838001178555610b25565b82800160010185558215610b25579182015b82811115610b24578251825591602001919060010190610b09565b5b509050610b329190610bbd565b5090565b828054600181600116156101000203166002900490600052602060002090601f016020900481019282601f10610b6f5780548555610bac565b82800160010185558215610bac57600052602060002091601f016020900482015b82811115610bab578254825591600101919060010190610b90565b5b509050610bb99190610bbd565b5090565b610bdf91905b80821115610bdb576000816000905550600101610bc3565b5090565b9056fea265627a7a723158208dfbf8d6324597e6e2d059c7efa9e3d88c3d22f5a748c0ba91fa9c48fbde993164736f6c63430005100032",
  "source": "// SPDX-License-Identifier: MIT\r\npragma solidity >=0.4.21 <0.9.0;\r\n\r\n/** @title Traffic Record. */\r\ncontract TrafficRecord{\r\n\r\n    // a struct for vehicle storing Id,Identification, collision happend count ,EDRInfo and boolean to check if it is registered\r\n    struct Vehicle{\r\n        uint Id;\r\n        string Identification;\r\n        uint CollisionCount;\r\n        string EDRInfo;\r\n        bool Registered;\r\n    }\r\n\r\n    // mapping to map each struct with the address\r\n    mapping(address => Vehicle) vehicles;\r\n\r\n    Vehicle[] vehicle_record;\r\n\r\n    uint vehicle_id;\r\n\r\n    // events to record some data\r\n    event vehicleRegistered(uint id);\r\n\r\n    // modifiers \r\n    modifier onlyVehicle{\r\n        require(vehicles[msg.sender].Registered,\" Not registered\");\r\n        _;\r\n    }\r\n\r\n    /**\r\n        @dev Registers a user as Vehicle\r\n        @param _Identification  unique Identification of the vehicle\r\n        @param _CollisionCount happend count of collision\r\n    */\r\n    function registerVehicle(string memory _Identification,uint _CollisionCount) public {\r\n\r\n        require(!vehicles[msg.sender].Registered,\" Already registered\");\r\n        Vehicle storage vehicle = vehicles[msg.sender];\r\n        vehicle_id++;\r\n        vehicle.Id = vehicle_id;\r\n        vehicle.Identification = _Identification;\r\n        vehicle.CollisionCount = _CollisionCount;\r\n        vehicle.Registered = true;\r\n        vehicle_record.push(vehicles[msg.sender]);\r\n        emit vehicleRegistered(vehicle.Id);\r\n\r\n    }\r\n\r\n    /**\r\n        @dev Add new EDRInfo to a registered Vehicle (only one inforamtion at a time)\r\n        @param _EDRInfo Information related to event recorder\r\n        \r\n    */\r\n      function addNewEDRInfo(string memory _EDRInfo, uint _CollisionCount) public onlyVehicle{\r\n\r\n        vehicles[msg.sender].EDRInfo = _EDRInfo;\r\n        vehicles[msg.sender].CollisionCount = _CollisionCount;\r\n        vehicle_record[vehicles[msg.sender].Id - 1].CollisionCount = _CollisionCount;\r\n        vehicle_record[vehicles[msg.sender].Id - 1].EDRInfo = _EDRInfo;\r\n\r\n    }\r\n\r\n    /**\r\n        @dev View record of the Vehicle only by itself\r\n        @return id Id of the Vehicle struct\r\n        @return CollisionCount  collsions count of the Vehicle accident\r\n        @return Identification Identification of the Vehicle\r\n        @return EDRInfo All the EDRInfo of the Vehicle\r\n    */\r\n    function viewRecord() public view onlyVehicle returns(uint id,uint CollisionCount,string memory Identification,string memory EDRInfo){\r\n\r\n         id = vehicles[msg.sender].Id;\r\n         CollisionCount = vehicles[msg.sender].CollisionCount;\r\n         Identification = vehicles[msg.sender].Identification;\r\n         EDRInfo = vehicles[msg.sender].EDRInfo;\r\n\r\n    }\r\n\r\n}",
  "sourcePath": "/home/ytw/dapp/contracts/TrafficRecord.sol",
  "compiler": {
    "name": "solc",
    "version": "0.5.16+commit.9c3226ce.Emscripten.clang"
  },
  "schemaVersion": "3.4.10",
  "updatedAt": "2023-03-23T10:48:58.190Z",
  "networkType": "ethereum",
  "devdoc": {
    "methods": {
      "addNewEDRInfo(string,uint256)": {
        "details": "Add new EDRInfo to a registered Vehicle (only one inforamtion at a time)",
        "params": {
          "_EDRInfo": "Information related to event recorder"
        }
      },
      "registerVehicle(string,uint256)": {
        "details": "Registers a user as Vehicle",
        "params": {
          "_CollisionCount": "happend count of collision",
          "_Identification": "unique Identification of the vehicle"
        }
      },
      "viewRecord()": {
        "details": "View record of the Vehicle only by itself",
        "return": "id Id of the Vehicle structCollisionCount  collsions count of the Vehicle accidentIdentification Identification of the VehicleEDRInfo All the EDRInfo of the Vehicle"
      }
    },
    "title": "Traffic Record. "
  },
  "userdoc": {
    "methods": {}
  }
}